:020000040800F2
:10000000383000209D010008FF0C0008FD080008A2
:10001000FD0C00085D030008051500080000000045
:10002000000000000000000000000000910E000829
:1000300041040008000000007D0D0008950F000835
:10004000B7010008B7010008B7010008B7010008B0
:10005000B7010008B701000845040008B70100080F
:10006000B7010008B7010008B7010008B701000890
:10007000B7010008B7010008B7010008B701000880
:10008000B7010008B7010008B7010008B701000870
:10009000B7010008B7010008B7010008B701000860
:1000A000B7010008B7010008B7010008B701000850
:1000B000B7010008B701000841100008B7010008A7
:1000C000B7010008B7010008B7010008B701000830
:1000D000B7010008B9120008B7010008B70100080D
:1000E000B7010008B7010008B7010008B701000810
:1000F000B7010008B7010008B7010008B701000800
:10010000B7010008B7010008B7010008B7010008EF
:10011000B7010008B7010008B7010008B7010008DF
:10012000B7010008B7010008B7010008B7010008CF
:10013000B7010008B7010008B7010008B7010008BF
:10014000B7010008B7010008B7010008B7010008AF
:10015000B7010008B7010008B7010008B70100089F
:10016000B7010008B7010008B7010008B70100088F
:10017000B7010008B7010008B7010008B70100087F
:10018000B7010008B7010008DFF80CD000F018F83C
:10019000004800474D1500083830002006488047C9
:1001A00006480047FEE7FEE7FEE7FEE7FEE7FEE75C
:1001B000FEE7FEE7FEE7FEE7E50F0008890100081D
:1001C000064C074D06E0E06840F0010394E80700A4
:1001D00098471034AC42F6D3FFF7DAFF6493000877
:1001E00084930008002904D0816841F001018160F6
:1001F0007047816821F001018160704730B589B096
:100200000121084600F0BCFD0121080200F0E2FDDA
:100210000125019503208DF8080000248DF80B407E
:1002200001A9104800F018FB03948DF810408DF8D8
:100230001140280705904FF0C060069007948DF894
:100240002050094C03A9204600F028F80023012281
:100250001946204600F048F801212046FFF7C2FF6A
:1002600009B030BD0000024000200140002904D048
:10027000816841F4807181607047816821F48071E8
:1002800081607047002904D0816841F40071816069
:100290007047816821F400718160704730B5426811
:1002A0000F4B1A400C790B6842EA04221343436057
:1002B00083680C4A1340D1E9034222434D798C688C
:1002C00044EA450422431A438260C26A22F470025F
:1002D000097D491EC9B242EA0151C16230BD000028
:1002E000FFFEFFFCFDF7FFC070B5072609290AD9FC
:1002F000C568A1F10A0404EB4404A640B543A34039
:100300001D43C56007E0056901EB4104A640B54304
:10031000A3401D4305611F23072A09D2446B521EC7
:1003200002EB820293409C4391400C43446370BDB6
:100330000D2A09D2046BD21F02EB820293409C4328
:1003400091400C43046370BDC46A0D3A02EB820213
:1003500093409C4391400C43C46270BDFEE700296A
:1003600004D0016841F0010101607047016821F08B
:10037000010101607047000010B590B001218805AF
:1003800000F0FEFC002001901549029115490391EF
:1003900004904FF48051059106908910079149000F
:1003A0000891890009910A9009010B910C90012193
:1003B0000D910E900F900C4C01A9204600F016F8FC
:1003C00001212046FFF7CBFF054C01214C3C204684
:1003D000FFF758FF01212046FFF748FF10B010BD7E
:1003E0004C200140340000201064024030B5036806
:1003F000124A1340CC680A682243D1E905452C43D0
:100400002243CC6922430C6A22434C6A22438C6A01
:1004100022434C6B22438C6B22431A430260426995
:1004200022F00703D1E90B2422431A4342610A69EF
:1004300042604A6882608968C16030BD3F801CF0BC
:100440007047000004488089044900F00F0048709C
:100450000120087000F046B800000660000000208F
:1004600030B585B00121022000F08AFC012188030B
:1004700000F0B0FC00258DF8105001248DF81240DA
:100480008DF813408DF81150039403A9114800F022
:10049000E3F90021012000F0FDFC01948DF80850E3
:1004A0000C208DF809008DF80A4001A800F020F812
:1004B000012000F011F806208DF8000002208DF8D0
:1004C00001008DF802008DF80340684600F018FC2A
:1004D00005B030BD000402400149086070470000CB
:1004E000143C01400149086070470000143C014081
:1004F00030B51B4A83790168002B2AD013688B43DF
:100500001360111D0B680468A3430B60017911444B
:100510000B68046823430B60114C0834216803689E
:1005200099432160231D19680568A9431960417921
:10053000102905D011440A68006802430A6030BDE2
:10054000216802681143216019680068014319603D
:1005500030BD0079104402688A43026030BD00005B
:10056000003C01408000A0F1C040002904D0016897
:1005700041F00101016070470168024A11400160C9
:1005800070470000FEFF0F0010B5D0E901121143C3
:10059000D0E903231A43114342691143826911438D
:1005A000C2691143026A1143426A1143826A1143CC
:1005B000C26A1143026B114302689200A2F1C04269
:1005C00011608168082907D101688900A1F1C04143
:1005D0000A6842F040020A60416BD1E9002342EA16
:1005E00003128B688C891B0243EA04431A430B8A6B
:1005F00042EA03520B7D896942EA03620A430168B9
:10060000491C8900A1F1C0410A60C16AB1F5804F5F
:1006100008D000686FF070418000A0F1C040C0F8C1
:10062000041110BD816BD1E9002342EA03128B68EB
:100630000C8A1B0243EA04531A430B7D896942EA80
:10064000036200680A438000A0F1C040C0F80421A2
:1006500010BD000070B598B00121084600F09EFB67
:1006600001211A2000F08CFB02258DF84050002457
:100670008DF842408DF8434001208DF84100534EE3
:100680000C220021304600F025F90C2201213046D1
:1006900000F020F90C220421304600F01BF90C2256
:1006A0000521304600F016F90C220821304600F0F2
:1006B00011F90C220921304600F00CF90C220A2114
:1006C000304600F007F90C220B21304600F002F909
:1006D0000C221146304600F0FDF80C220E21304667
:1006E00000F0F8F80C220F21304600F0F3F84DF638
:1006F00033710F910FA9304600F0AEF8344E0C2242
:100700000721304600F0E6F80C220821304600F0C0
:10071000E1F80C220921304600F0DCF80C220A2115
:10072000304600F0D7F80C220B21304600F0D2F80A
:100730000C221146304600F0CDF80C220D21304637
:1007400000F0C8F80C220E21304600F0C3F80C224D
:100750000F21304600F0BEF84FF680710F910FA9BF
:10076000304600F079F81B4E0C220721304600F08D
:10077000B1F880210F910FA9304600F06DF80520E7
:100780001190042012900F20139014941595169434
:10079000E80617900094019508200290102003901D
:1007A0000494069408940A9407940002099005940E
:1007B0000B940C9411A80D906846FFF7E5FE0121FB
:1007C0000020FFF7CFFE18B070BD0000000C024003
:1007D00000100240000402407CB50121022000F01C
:1007E000CFFA0121042000F0CBFA0121102000F003
:1007F000C7FA01258DF8045000248DF806408DF8C5
:10080000074002268DF805600720009069460F48D2
:1008100000F022F88DF804508DF806408DF807405E
:100820008DF80560312000906946094800F014F801
:100830004FF4817000908DF804508DF806408DF8CB
:1008400005406946034800F007F87CBD00100240EF
:1008500000080240000402402DE9F0410022012777
:100860004FF0030C07FA02F50B682B40AB422CD17A
:10087000066853000CFA03F4A64306600E79D0F81C
:1008800000809E4046EA080606600E79012E01D0DF
:10089000022E12D18668A64386604E79D0F8088071
:1008A0009E4046EA080686604668AE434660456854
:1008B0008E799640B6B235434560C568A543C5609C
:1008C000CC799C40C3681C43C460521C102AC9D315
:1008D000BDE8F08110B54B07DB0E9A40C90800EB6C
:1008E0008100016A0F249C40A1430162016A114307
:1008F000016210BD42694A4042617047FEE7000054
:1009000010B50D4A2A211180002151805180012308
:100910005380DF2454802B241480518051805380D5
:100920003F2151802C21118000214FF4163350803B
:10093000491C9942FBD310BD00000660F0B53F4C46
:100940000025A58000F0EEFD0126A6801127278056
:1009500000F0E8FDD02020800720608041206080EA
:1009600018206080D120208065800A2363801020B9
:100970006080D221218066806780C02121806080D4
:100980003B2161806580022161806780C1222280D5
:1009900060801327678088276780C527278061804C
:1009A000C821218065803721618025216180062151
:1009B0006180042161801E216180262161804221A5
:1009C000618077216180442161800F216180122143
:1009D0006180F3212180402161806380F6212180A4
:1009E00080216180F723238061803621218029279F
:1009F00067803A21218055216180202121802A2190
:100A000021806580658066803F2161802B21218067
:100A1000658065806680DF216180228065806080DE
:100A20002220608000F07EFD278000F07BFD2C20DE
:100A30002080BDE8F0400020FFF762BF00000660A4
:100A40000D4A2A231380030A5380C3B25380C01D6A
:100A500080B2030A5380C0B250802B201080080A55
:100A60005080C8B250800F3188B2010A5180C0B2A4
:100A700050802C2010807047000006602DE9F04F58
:100A800082468B4615461C46374EB6F800900BF151
:100A900010081FFA88F15046FFF7D2FF0F233348A2
:100AA000203D334F00EB8515EA5C0020110601D58F
:100AB000348001E071883180B6F800C0A7F802C028
:100AC0005200401C0828F1DB5B1E002BECDA594673
:100AD0005046FFF7B5FF1F23E85C0022010601D551
:100AE000348001E071883180B6F800C0A7F802C0F8
:100AF0004000521C082AF1DB5B1E102BECDA0AF1D5
:100B0000080A1FFA88F11FFA8AF0FFF799FF2F22CF
:100B1000A85C0021030601D5348001E0738833808E
:100B200033887B804000491C0829F3DB521E202AB1
:100B3000EEDA1FFA8AF05946FFF782FF3F22A85CDF
:100B40000021030601D5348001E0738833803388A7
:100B50007B804000491C0829F3DB521E302AEEDA64
:100B6000A6F80090BDE8F08F30000020041C0008BB
:100B7000000006602DE9FF4F81B083461D46464FB9
:100B8000388800900024DDF808A04448DFF8108180
:100B90000AF1100A00EBC216E01704EB90700BEBA1
:100BA000A0091FFA89F01FFA8AF1FFF749FF04F143
:100BB0000F020FE0B05C0021030601D53D8001E08B
:100BC0007B883B803B88A8F802304000491C0829FC
:100BD000F2DB521EA242EDDA1FFA89F00299FFF70A
:100BE0002FFF04F11F0204F1100C0FE0B05C002194
:100BF000030601D53D8001E07B883B803B88A8F857
:100C000002304000491C0829F2DB521E6245EDDA31
:100C100009F108091FFA89F01FFA8AF1FFF710FF9E
:100C200004F12F0204F1200C0FE0B05C0021030658
:100C300001D53D8001E07B883B803B88A8F80230ED
:100C40004000491C0829F2DB521E6245EDDA1FFA0A
:100C500089F00299FFF7F4FE04F13F0204F1300C31
:100C60000FE0B05C0021030601D53D8001E07B88E8
:100C70003B803B88A8F802304000491C0829F2DB81
:100C8000521E6245EDDA4034802C85DB00983880B6
:100C900005B0BDE8F08F0000300000206436000889
:100CA000000006602DE9F0430546DDF81C908846FB
:100CB00016461F46002409E03019C2B205EB441065
:100CC00080B24B464146FFF755FF641CBC42F3DB44
:100CD000BDE8F083F0B505460E4614461F4607E012
:100CE0003B4631462846FFF7C9FE1035ADB2641CBD
:100CF0002278A2F120005E28F2D9F0BDFEE770470D
:100D000030B50F23C27801250178002A1FD0154A7B
:100D1000126802F4E062C2F5E062C2F30722C2F197
:100D20000404D3404278A24084781C40144322013A
:100D300001F1E02181F80024007800F01F018D40CE
:100D40004009800000F1E020C0F8005130BD01F002
:100D50001F0085404809800000F1E020C0F8805164
:100D600030BD00000CED00E0024908430249086074
:100D7000704700000000FA050CED00E0704700002D
:100D8000054A002903D011680143116070471168BA
:100D9000814311607047000030380240054A002945
:100DA00003D01168014311607047116881431160DD
:100DB0007047000038380240054A002903D0116806
:100DC0000143116070471168814311607047000052
:100DD00040380240054A002903D0116801431160E0
:100DE0007047116881431160704700004438024029
:100DF00070B5244B196801F00C01234C00291ED05A
:100E0000661004291DD008291DD00460196801F05E
:100E1000F00109091D4A545C0168E14041601C6809
:100E200004F4E054A40A145D21FA04F484601B68FD
:100E300003F460435B0BD25CD140C16070BD0460C1
:100E4000E4E70660E2E70F4A121F1168C1F380551C
:100E5000116801F03F0135B1B6FBF1F11468C4F33C
:100E60008814614305E0B4FBF1F11468C4F38814FD
:100E700061431268C2F30142521C5200B1FBF2F10D
:100E80000160C3E7083802400024F400200000207D
:100E90007047000010B58A07120F0F23934021F00E
:100EA00003040649214401F608010C689C430C60C8
:100EB0000B68904003430B6010BD00000030014000
:100EC0000CB50022019200922749086840F4803056
:100ED00008604FF4A043086800F4003000900198C7
:100EE000401C0190009810B901989842F3D108680D
:100EF000800302D50120009000E0009200980128B4
:100F000031D119484030026842F0805202601748DF
:100F1000026842F4404202601348083002680260EE
:100F2000026842F400420260026842F4A052026089
:100F3000021F0F4B13600A6842F080720A600A6851
:100F40009201FCD50B4A40F205711160016821F055
:100F500003010160016841F0020101600168C1F311
:100F600081010229FAD10CBD003802400070004016
:100F700008544007003C02404FF0E021042804D010
:100F8000086920F0040008617047086940F0040017
:100F900008617047054A9068411C9160C00704D100
:100FA0004FF400710248FFF7A5BC70470000002015
:100FB0000000024010B504466FF00400FFF7DCFFAC
:100FC000641EB4F1807F09D24FF0E0204461044AEE
:100FD000F0211170002181610721016110BD000025
:100FE00023ED00E010B51248016841F47001016082
:100FF0001048016841F0010101600E4A00210832E9
:10100000116002680C4B1A400260031D0B4A1A6003
:10101000026822F48022026006480C300160FFF76B
:101020004FFF03494FF000608039086010BD000099
:1010300088ED00E000380240FFFFF6FE103000248B
:1010400010B50C4C0121204600F098F800280FD074
:101050000121204600F042F807494868401C4860DA
:10106000B0F57A7F04D3002048604888401C48804F
:1010700010BD000000080040000000207FB50121E5
:101080000420FFF799FE532040F2E731ADF8040049
:101090000024ADF806400291ADF80C408DF80E40EA
:1010A0000D4D01A9284600F0C9F801221146284635
:1010B00000F070F81E218DF800108DF801408DF8B9
:1010C000024001218DF803106846FFF719FE012147
:1010D000284600F006F87FBD00080040C9430182A1
:1010E0007047002904D0018841F001010180704758
:1010F000018821F0010101807047000070B588B0BF
:1011000001210846FFF758FE1A489FED1B1A90ED83
:10111000000AF8EE400A80EE810AF7EE000A30EE8F
:10112000600ABCEEC00A10EE100A01240694ADF865
:1011300014000025ADF81C50ADF81650A60705A9FF
:10114000304600F07BF86021ADF80010ADF80240A9
:101150000294ADF80C506946304600F025F8602145
:10116000304600F063F801213046FFF7BAFF08B0BF
:1011700070BD00000C0000200024744A02460020CC
:10118000138A0B4092890A40002B02D0002A00D01B
:1011900001207047002A03D082890A438281704768
:1011A00082898A438281704770B5028C22F48072F2
:1011B0000284028C8388848B24F0700424F003045E
:1011C0000D88254322F400728E894FF6FF7404EADD
:1011D000062616434A8804EA02223243114EB042E0
:1011E00002D0114EB04217D122F40066CA8904EA37
:1011F0000222324322F480668A8804EA02223243C1
:1012000023F4805323F400530E8A04EA06161E4387
:101210004B8A04EA03133343838085838968C1635F
:10122000028470BD0000014000040140828822F069
:101230007002828082880A438280704730B50288BB
:10124000164C174DA0420DD0A8420BD0B0F1804FE4
:1012500008D0144B984205D0134B984202D0134B40
:10126000984203D122F070034A881A43104B9842E7
:1012700006D0104B984203D022F440730A891A43D7
:1012800002804A68C2620A880285A04201D0A84250
:1012900001D1897A01860121818230BD000001409F
:1012A000000401400004004000080040000C004021
:1012B000001000400014004010B50B4C40F22551C6
:1012C000204600F07EF800280CD0204600F012F9ED
:1012D000C1B2204600F012F98021204600F06AF8E1
:1012E0000028F9D010BD00000010014070B588B092
:1012F00001210846FFF744FD01211020FFF76AFD98
:101300004FF4C060069002208DF81C0000248DF878
:101310001E4003208DF81D0001258DF81F501D4E25
:1013200006A93046FFF798FA072209213046FFF751
:10133000D1FA07220A213046FFF7CCFA4FF4E13008
:101340000290ADF80C40ADF80E40ADF81040ADF88D
:1013500014400C20ADF812000F4E02A9304600F0E8
:101360006BF825218DF804108DF805408DF80640A6
:101370008DF8075001A8FFF7C3FC012240F2255168
:10138000304600F03EF80121304600F007F808B082
:1013900070BD00000000024000100140002904D090
:1013A000818941F4005181817047818921F4005184
:1013B000818170470246002012880A4200D0012035
:1013C000704770B5002440F66A12C1F3421301F071
:1013D0001F05012606FA05F2012B0CD0022B0DD0B9
:1013E000838A1340090A8E40008830400BB100B157
:1013F0000124204670BD83891340F3E7038A13401C
:10140000F0E710B540F66A13C1F3421301F01F0470
:101410000121A140012B07D0022B07D014303AB193
:1014200002680A43026010BD0C30F8E71030F6E79E
:1014300002688A43026010BD7FB504460D46208ACB
:1014400020F44051E88808432082A08941F20C61D1
:101450008843A9882A8911436A8902431143A181DB
:10146000A08A20F44071A8890843A0826846FFF74B
:10147000BFFC1E48844202D01D48844201D103981B
:1014800000E00298A189090408D500EBC00101EB36
:10149000001029684900B0FBF1F007E000EBC00143
:1014A00001EB001029688900B0FBF1F06422B0FB69
:1014B000F2F109010B096FF018056B4300EB830093
:1014C000A3891D044FF0320307D503EBC000B0FB26
:1014D000F2F000F00700084306E003EB0010B0FB59
:1014E000F2F000F00F00084320817FBD00100140A2
:1014F000001401408088C0F308007047C1F3080160
:1015000081807047FEE702E008C8121F08C1002A68
:10151000FAD170477047002001E001C1121F002A74
:10152000FBD170470CB5002001906420009042F67A
:10153000E06205E00192BDF80400411E0191FAD27B
:10154000BDF80000411E0091F4D20CBD08B5FFF7B4
:1015500081F8FFF7F3F9FFF73FF92548FFF72AFD78
:101560004FF4A060FFF700FCFEF77AFF47F6FF702C
:1015700000900523AB22FA21A020FFF793FB4FF444
:10158000FC640623B022B42132200094FFF78AFBCA
:101590000423B622822176200094FFF783FB2346A2
:1015A00014A232216920FFF795FB234613A23221B2
:1015B000C320FFF78FFB234612A2322140F21D10F9
:1015C000FFF788FB114901200881114C0025257087
:1015D0006580FFF78BFEFFF751FDFEF70FFEFFF76B
:1015E0008DFDFEF7C9FE20780128FCD12570FAE7B1
:1015F000503403004B303A2B000000004B313A2DA1
:10160000000000004B323A73746570000000066001
:1016100000000020000000000000000000000000AA
:1016200000000000000000183C3C3C18180018188E
:101630000000000000000066666600000000000078
:101640000000000000000036367F3636367F363622
:10165000000000000018183C666030180C06663C5C
:1016600018180000000070D8DA760C18306E5B1B7A
:101670000E000000000000386C6C38606F66663B3E
:101680000000000000000018181800000000000012
:10169000000000000000000C181830303030301806
:1016A000180C00000000003018180C0C0C0C0C1862
:1016B000183000000000000000361C7F1C360000BF
:1016C00000000000000000000018187E181800003C
:1016D00000000000000000000000000000001C1CD2
:1016E0000C180000000000000000007E0000000058
:1016F00000000000000000000000000000001C1CB2
:101700000000000000000006060C0C1818303060C5
:10171000600000000000001E333737333B3B331EB0
:10172000000000000000000C1C7C0C0C0C0C0C0CCD
:10173000000000000000003C6666060C1830607E69
:10174000000000000000003C6666061C0666663C61
:10175000000000000000003030363636667F060696
:10176000000000000000007E6060607C06060C78CF
:10177000000000000000001C18307C666666663CB5
:10178000000000000000007E060C0C1818303030FD
:10179000000000000000003C6666763C6E66663C19
:1017A000000000000000003C666666663E0C1838CB
:1017B0000000000000000000001C1C0000001C1CB9
:1017C0000000000000000000001C1C0000001C1CA9
:1017D0000C180000000000060C18306030180C06D1
:1017E000000000000000000000007E007E000000FD
:1017F000000000000000006030180C060C1830607B
:10180000000000000000003C66660C181800181864
:10181000000000000000007EC3C3CFDBDBCFC07F31
:1018200000000000000000183C6666667E66666682
:10183000000000000000007C6666667C6666667CD0
:10184000000000000000003C666660606066663C68
:1018500000000000000000786C66666666666C78C2
:10186000000000000000007E6060607C6060607EC0
:10187000000000000000007E6060607C60606060CE
:10188000000000000000003C666660606E66663E18
:1018900000000000000000666666667E666666669A
:1018A000000000000000003C181818181818183C18
:1018B0000000000000000006060606060666663CFC
:1018C0000000000000000066666C6C786C6C666658
:1018D0000000000000000060606060606060607E8A
:1018E000000000000000006363776B6B6B63636351
:1018F000000000000000006363737B6F6763636335
:10190000000000000000003C666666666666663C95
:10191000000000000000007C6666667C606060601D
:10192000000000000000003C666666666666663C75
:101930000C0600000000007C6666667C6C666666CD
:10194000000000000000003C666030180C06663C99
:10195000000000000000007E181818181818181849
:101960000000000000000066666666666666663C0B
:1019700000000000000000666666666666663C1849
:10198000000000000000006363636B6B6B3636364B
:101990000000000000000066663418182C666666B9
:1019A00000000000000000666666663C1818181803
:1019B000000000000000007E06060C183060607E0B
:1019C000000000000000003C30303030303030305B
:1019D00030303C000000006060303018180C0C06FD
:1019E000060000000000003C0C0C0C0C0C0C0C0C55
:1019F0000C0C3C0000183C660000000000000000D9
:101A000000000000000000000000000000000000D6
:101A10000000FF000000001818180000000000007F
:101A20000000000000000000003C06063E66663E26
:101A30000000000000000060607C66666666667CF0
:101A40000000000000000000003C66606060663C32
:101A50000000000000000006063E66666666663E00
:101A60000000000000000000003C66667E60603CF4
:101A7000000000000000001E3030307E303030307A
:101A80000000000000000000003E66666666663EDC
:101A900006067C0000000060607C6666666666661E
:101AA0000000000000001818007818181818187E98
:101AB0000000000000000C0C003C0C0C0C0C0C0C8A
:101AC0000C0C7800000000606066666C786C6666DE
:101AD0000000000000000078181818181818187E68
:101AE0000000000000000000007E6B6B6B6B6B63FE
:101AF0000000000000000000007C66666666666606
:101B00000000000000000000003C66666666663C5F
:101B10000000000000000000007C66666666667CCF
:101B20006060600000000000003E66666666663E1B
:101B3000060606000000000000666E7060606060CF
:101B40000000000000000000003E60603C06067CD3
:101B50000000000000000030307E30303030301E99
:101B60000000000000000000006666666666663ED3
:101B700000000000000000000066666666663C1813
:101B8000000000000000000000636B6B6B6B3636DA
:101B900000000000000000000066663C183C66661D
:101BA0000000000000000000006666666666663C95
:101BB0000C18F00000000000007E060C1830607E5B
:101BC000000000000000000C1818183060301818D1
:101BD000180C000000000018181818181818181809
:101BE00018181800000000301818180C060C1818E7
:101BF0001830000000000071DB8E000000000000C3
:101C000000000000000000000000000000000000D4
:101C100000000000000000000000000000000000C4
:101C200000000000000000000000000000000000B4
:101C300000000000000000000000000000000000A4
:101C4000000000000000000001010101010101018C
:101C50000101010101010101010100000001010177
:101C60000000000000000000808080808080808074
:101C700080808080808080808080000000808080E4
:101C80000000000000000404040404040404040030
:101C90000000000000000000000000000000000044
:101CA0000000000000002020202020202020200014
:101CB0000000000000000000000000000000000024
:101CC0000000000000000000030302020206063FBD
:101CD0003F0606040C0C7F7F0C0C0C081818181813
:101CE00000000000000000000C0C0C08181818FE82
:101CF000FE3030303030FEFE60606040C0C0C0C09A
:101D00000000000000010101070F1D1931313131C0
:101D100031191D0F030101010131313119190F076B
:101D20000101010000808080E0F8989C8C8C80800C
:101D3000808080C0E0B88C8C868686868E9CF8E099
:101D4000808080000000000000183C6666666666C1
:101D500066363C1D01010303030606060C0C0C1835
:101D60000000000000000000181830303060606093
:101D7000C0C0C08080983C6666666666663C180097
:101D80000000000000000000070F1C181818180CB5
:101D90000C07070F332161C0C0C0C0C060703F0F87
:101DA0000000000000000000C0E070303030306003
:101DB000C080000080CCCCEC6C7838387CFCE6C667
:101DC000000000000000010101010101010101000A
:101DD0000000000000000000000000000000000003
:101DE00000000000000000000000000000000000F3
:101DF00000000000000000000000000000000000E3
:101E000000000000000001030306060C0C0C0C1877
:101E1000181818181818181818080C0C0C060602B0
:101E200003010100008080000000000000000000AD
:101E300000000000000000000000000000000000A2
:101E40000000800000080C060603030101010100E8
:101E50000000000000000000000001010103030277
:101E600006040C000000000000000080808080C09C
:101E7000C0C0C0C0C0C0C0C0C080808080000000A2
:101E80000000000000000000000000000000010150
:101E90000121391F0302060C0C00000000000000A5
:101EA0000000000000000000000000000000000032
:101EB000000038F08080C06070000000000000006A
:101EC000000000000000000000000001010101010D
:101ED0000101017F7F0101010101010101000000F9
:101EE0000000000000000000000000808080808072
:101EF000808080FEFE808080808080808000000066
:101F000000000000000000000000000000000000D1
:101F100000000000000000000000000000010101BE
:101F200000000001000000000000000000000000B0
:101F30000000000000000000000000000080808021
:101F40008080800000000000000000000000000011
:101F50000000007F7F000000000000000000000083
:101F60000000000000000000000000000000000071
:101F7000000000FCFC000000000000000000000069
:101F80000000000000000000000000000000000051
:101F9000000000000000000000000000000101013E
:101FA0000000000000000000000000000000000031
:101FB00000000000000000000000000000C0C0C0E1
:101FC0000000000000000000000000000000000011
:101FD000000000000101010303030606060C0C0CBF
:101FE000181800000000000C18181830303060601D
:101FF00060C0C0C0808080000000000000000000C1
:102000000000000000000000030F1C18303030609A
:10201000606060606060606060303030181C0F038A
:102020000000000000000000C0F038180C0C0C0686
:102030000606060606060606060C0C0C1838F0C046
:10204000000000000000000000000001033F3E000F
:102050000000000000000000000000000000000080
:102060000000000000000000C0C0C0C0C0C0C0C070
:10207000C0C0C0C0C0C0C0C0C0C0C0C0C0C0C0C060
:102080000000000000000000030F1C181830303062
:102090000000000000000103061C183060607F7F14
:1020A0000000000000000000E0F81C0C0606060618
:1020B000060C0C183060C080000000000000FEFE1E
:1020C0000000000000000000030F1C18303030003A
:1020D00000000303000000000060606030381F074C
:1020E0000000000000000000E0F0381C0C0C0C0C9C
:1020F0001838F0F0380C06060606060E0C3CF8E020
:1021000000000000000000000000000001010303C7
:1021100006040C18183030607F7F000000000000BB
:1021200000000000000000003070F0F0B0B030306F
:102130003030303030303030FEFE30303030303003
:1021400000000000000000000F0F0C1C1C1C1818E1
:10215000181B3F3C3800000000606070301C0F0707
:102160000000000000000000FCFC00000000000077
:1021700000E0F81C0C0E06060606060E0C38F0E011
:10218000000000000000000003070E183830307017
:1021900060636F6C7870606060602030381C0F0383
:1021A0000000000000000000E0F81C0C0606000023
:1021B00000E0F83C0C0E06060606060E0C3CF8E0A5
:1021C00000000000000000007F7F00000000000011
:1021D000000001010303030306060606060C0C0CAF
:1021E0000000000000000000FCFC0C1830306060B3
:1021F000C0C08080800000000000000000000000DF
:102200000000000000000000070F1C3830303030A4
:10221000181C0F0F1830606060606070303C1F0742
:102220000000000000000000E0F0381C0C0C0C0C5A
:102230001838F0F0380C06060606060E0C3CF8E0DE
:102240000000000000000000071F1C3030606060CC
:1022500060606030301C1F070000606030381F076E
:102260000000000000000000C0F0381C0C0C060646
:102270000606060E1E36F6C6060C0C1C1870E0C0CC
:10228000000000000000000000000000010101004B
:10229000000000000000000000000101010000003B
:1022A000000000000000000000000000C0C0C000EE
:1022B00000000000000000000000C0C0C0000000DE
:1022C000000000000000000000000000010101000B
:1022D00000000000000000000000010101000000FB
:1022E000010000000000000000000000808080006D
:1022F00000000000000000000000808080808080DE
:1023000000000000000000000000000000000000CD
:10231000030F3C70703C0F03010000000000000040
:10232000000000000000000000000000040C3CF071
:10233000C0000000000000C0F07C1C040000000091
:10234000000000000000000000000000000000008D
:102350007F7F000000007F7F000000000000000081
:10236000000000000000000000000000000000006D
:10237000FEFE00000000FEFE000000000000000065
:1023800000000000000000000000000020303C0FB2
:1023900003000000000000030F3E38200000000092
:1023A000000000000000000000000000000000002D
:1023B000C0F03C0E0E3CF0E0800000000000000089
:1023C0000000000000000000071F3830706060004F
:1023D00000000000000001010101010000010101F5
:1023E0000000000000000000E0F81C0E06060606D3
:1023F0000E0C183060C0C08080808000008080801B
:102400000000000000000103060C18383070616302
:1024100066C6C4CCCCCCCCCCCCCC66636030301897
:102420000E0300000000F0080402020201C1391985
:1024300011111111113121222222E438000002046D
:1024400018E000000000000001010303030206067B
:1024500006040C0C0C08181F1F1830303030606058
:1024600000000000000000008080C0C0C04060602C
:1024700060203030301018F8F8180C0C0C0C0606E0
:1024800000000000000000007F7F6060606060600E
:102490006060607F7F6060606060606060607F7FC0
:1024A0000000000000000000E0F0381C0C0C0C0CD8
:1024B0000C1830E0F81C0C06060606060C1CF8F09A
:1024C000000000000000000003070C1838303060E6
:1024D000606060606060606060303038180C0F03CE
:1024E0000000000000000000E0F0381C0C060600B0
:1024F000000000000000000006060E0C1C38F0E092
:1025000000000000000000007F7F6060606060608D
:1025100060606060606060606060606060607F7F7D
:10252000000000000000000080E070381C0C0C0E61
:102530000606060606060606060C0C1C3870E08029
:1025400000000000000000003F3F303030303030ED
:102550003030303F3F3030303030303030303F3F3F
:102560000000000000000000FEFE0000000000006F
:10257000000000F8F8000000000000000000FEFE6F
:1025800000000000000000003F3F303030303030AD
:102590003030303F3F30303030303030303030301D
:1025A0000000000000000000FCFC00000000000033
:1025B000000000F8F800000000000000000000002B
:1025C0000000000000000000030F1C1830303060D5
:1025D000606060606060606060303030181C0F07C1
:1025E0000000000000000000C0F03018180C0C00C3
:1025F00000000000FCFC0C0C0C0C1C1C3C7CECCC0B
:10260000000000000000000030303030303030304A
:102610003030303F3F30303030303030303030309C
:1026200000000000000000000C0C0C0C0C0C0C0C4A
:102630000C0C0CFCFC0C0C0C0C0C0C0C0C0C0C0CFA
:102640000000000000000000010101010101010182
:10265000010101010101010101010101010101016A
:10266000000000000000000080808080808080806A
:10267000808080808080808080808080808080805A
:10268000000000000000000000000000000000004A
:1026900000000000000000000060606070383F0F24
:1026A00000000000000000000C0C0C0C0C0C0C0CCA
:1026B0000C0C0C0C0C0C0C0C0C0C0C0C1C38F0C086
:1026C0000000000000000000303030303030303189
:1026D000313337373F3D38303030303030303030C4
:1026E00000000000000000000C18383060E0C0C09E
:1026F000800000008080C0E060703038181C0E063A
:102700000000000000000000303030303030303049
:1027100030303030303030303030303030303F3F9B
:1027200000000000000000000000000000000000A9
:102730000000000000000000000000000000FCFCA1
:102740000000000000000000707070787878786CED
:102750006C6C6C6C6666666667636363636161611B
:1027600000000000000000000E0E0E1E1E1E1E3691
:10277000363636366666666666C6C6C6C6868686D9
:1027800000000000000000003838383C3C36363687
:10279000333333313130303030303030303030302E
:1027A00000000000000000000C0C0C0C0C0C0C0CC9
:1027B0000C0C0C8C8CCCCCCC6C6C6C3C3C1C1C0C79
:1027C0000000000000000000030F1C1830303060D3
:1027D000606060606060606060303030181C0F03C3
:1027E0000000000000000000C0F038180C0C0C06BF
:1027F0000606060606060606060C0C0C1838F0C07F
:1028000000000000000000003F3F3030303030302A
:10281000303030303F3F303030303030303030309A
:102820000000000000000000E0F81C0C0606060690
:1028300006060C3CF8E0000000000000000000006C
:102840000000000000000000030F1C183030306052
:10285000606060606060606060303030181C0F0342
:102860000000000000000000C0F038181C0C0C062E
:1028700006060606060606060644EC6C3838FCEE2C
:1028800006020000000000003F3F303030303030A2
:102890003030303F3F30303030303030303030301A
:1028A0000000000000000000E0F81C0C0606060610
:1028B000060C1CF8F018180C0C0C0C0C0C0C0C066C
:1028C0000000000000000000070F1C3830303030DE
:1028D000381C0F030000000000606070303C1F07D0
:1028E0000000000000000000C0F038181C0C0C00B4
:1028F000000080E0781C0C06060606060C1CF8E0BA
:1029000000000000000000007F7F010101010101C3
:1029100001010101010101010101010101010101A7
:102920000000000000000000FEFE808080808080AB
:102930008080808080808080808080808080808097
:102940000000000000000000303030303030303007
:10295000303030303030303030303030181C0F07ED
:1029600000000000000000000C0C0C0C0C0C0C0C07
:102970000C0C0C0C0C0C0C0C0C0C0C0C1838F0E0A7
:102980000000000000000000C0C060606030303017
:10299000301818180C0C0C0406060603030301017A
:1029A000000000000000000003030606060C0C0CEB
:1029B0000C18181830303020606060C0C0C08080B3
:1029C0000000000000000000C1C1C1C34363636395
:1029D0006262666626262434343C3C3C1C18181877
:1029E0000000000000000000C3C3C3C3E2E2E666CB
:1029F0006666666664743434343C3C3C3818181897
:102A0000000000000000000060303018180C0C06B8
:102A10000603030101030306060C0C18183030608E
:102A20000000000000000000060C0C181830306098
:102A300060C0C08080C0C06060303018180C0C06C8
:102A40000000000000000000C06060303018180C6A
:102A50000E0607030101010101010101010101014C
:102A600000000000000000000306060C0C181830DF
:102A70003060E0C080808080808080808080808026
:102A800000000000000000003F3F000000000000C8
:102A900000000001010307060E0C183830607F7F2C
:102AA0000000000000000000FFFF070E1C1C383073
:102AB00070E0C0C080800000000000000000FEFE4A
:102AC00000000000000707060606060606060606C2
:102AD0000606060606060606060606060606060696
:102AE0000607070000E0E000000000000000000012
:102AF00000000000000000000000000000000000D6
:102B000000E0E00000000000C1C1C1C14163636397
:102B100063FFFF663636363434343C3C1C181818D4
:102B20000000000000000000C3C3C3C34262666629
:102B300066FFFF64646424343C3C3C3C381818183D
:102B40000000000000070700000000000000000077
:102B50000000000000000000000000000000000075
:102B60000007070000E0E060606060606060606037
:102B70006060606060606060606060606060606055
:102B800060E0E00000000103070E0C183060C00098
:102B90000000000000000000000000000000000035
:102BA00000000000000080C0E07030180C06030038
:102BB0000000000000000000000000000000000015
:102BC0000000000000000000000000000000000005
:102BD00000000000000000000000000000000000F5
:102BE00000FFFF00000000000000000000000000E7
:102BF00000000000000000000000000000000000D5
:102C000000FFFF00000000060703010000000000B5
:102C100000000000000000000000000000000000B4
:102C2000000000000000000000008080C0000000E4
:102C30000000000000000000000000000000000094
:102C4000000000000000000000000000000000077D
:102C50000F1C30300000071F1C30303030181F07A9
:102C6000000000000000000000000000000000E084
:102C7000F81C0C0C0C1CFCCC0C0C0C0C1C7CEEC6BC
:102C800000000000000000000030303030303033F1
:102C9000373C38383030303030303038383C3733EB
:102CA000000000000000000000000000000000C064
:102CB000F03818180C0C0C0C0C0C0C181830F0C058
:102CC0000000000000000000000000000000000301
:102CD000070E18183030303030303018180E0F030F
:102CE000000000000000000000000000000000F0F4
:102CF000F81C0E0600000000000006060C1CF8E0A0
:102D000000000000000000000000000000000003C0
:102D10000F1C18183030303030303018181C0F03AA
:102D20000000000000000000000C0C0C0C0C0CCC8F
:102D3000EC3C1C1C0C0C0C0C0C0C0C1C1C3CECCCB3
:102D4000000000000000000000000000000000077C
:102D50000F1C303060607F7F60606030301C1F0768
:102D6000000000000000000000000000000000E083
:102D7000F8380C0C0606FEFE0000000C1C38F0C0F3
:102D80000000000000000000000303030303030F22
:102D90000F030303030303030303030303030303F7
:102DA0000000000000000000E0E00000000000E083
:102DB000E000000000000000000000000000000033
:102DC00000000000000000000000000000000007FC
:102DD0000F1C38306060606060606030381C0F0726
:102DE00030301C0F0000000000000000000000C692
:102DF000E6361E0E060606060606060E1E3EF6C63B
:102E0000060C1CF80000000030303030303030311B
:102E1000373C38383030303030303030303030308F
:102E2000000000000000000000000000000000E0C2
:102E3000F8181C0C0C0C0C0C0C0C0C0C0C0C0C0CCA
:102E4000000000000000000001010100000000017E
:102E50000101010101010101010101010101010162
:102E60000000000000000000808080000000008062
:102E70008080808080808080808080808080808052
:102E8000000000000000000001010100000000013E
:102E90000101010101010101010101010101010122
:102EA0000101010F00000000808080000000008010
:102EB0008080808080808080808080808080808012
:102EC0008080808000000000303030303030303082
:102ED000303030313333373D3830303030303030CF
:102EE00000000000000000000000000000000018CA
:102EF0003060C08080008080C0C060603018180CD6
:102F000000000000000000000101010101010101B9
:102F100001010101010101010101010101010101A1
:102F200000000000000000008080808080808080A1
:102F30008080808080808080808080808080808091
:102F40000000000000000000000000000000006F12
:102F50007F73616161616161616161616161616131
:102F60000000000000000000000000000000003C25
:102F70007CCE8686868686868686868686868686B3
:102F8000000000000000000000000000000000330E
:102F9000373E38383030303030303030303030300C
:102FA000000000000000000000000000000000E041
:102FB000F8180C0C0C0C0C0C0C0C0C0C0C0C0C0C59
:102FC00000000000000000000000000000000007FA
:102FD0000F1C38306060606060606030381C0F0724
:102FE000000000000000000000000000000000E001
:102FF000F0381C0C060606060606060C1C38F0E027
:10300000000000000000000000000000000000338D
:10301000373E38383030303030303038383E373165
:10302000303030300000000000000000000000E000
:10303000F8380C0C060606060606060C0C38F8E0F6
:10304000000000000000000000000000000000037D
:103050000F1C18183030303030303018181C0F0367
:10306000000000000000000000000000000000CC94
:10307000EC3C1C1C0C0C0C0C0C0C0C1C1C3CECCC70
:103080000C0C0C0C00000000000000000000000C04
:103090000D0F0E0E0C0C0C0C0C0C0C0C0C0C0C0C68
:1030A000000000000000000000000000000000E040
:1030B000E000000000000000000000000000000030
:1030C00000000000000000000000000000000007F9
:1030D0001F183030301C0F0300000030381C0F0761
:1030E000000000000000000000000000000000E000
:1030F000F0381C0C0000E0F83C0E0606061CF8F048
:1031000000000000000000000000010101010107B3
:10311000070101010101010101010101010101009A
:10312000000000000000000000008080808080F02F
:10313000F080808080808080808080808080F0F03F
:10314000000000000000000000000000000000304F
:1031500030303030303030303030303038181F07B9
:103160000000000000000000000000000000000C53
:103170000C0C0C0C0C0C0C0C0C0C0C1C1C3CECCC9F
:1031800000000000000000000000000000000060DF
:103190003030301818180C0C0C0606060303030117
:1031A0000000000000000000000000000000000619
:1031B0000C0C0C181818303030606060C0C0C08033
:1031C000000000000000000000000000000000619E
:1031D0006161233333323232361614141C1C1C182E
:1031E0000000000000000000000000000000008659
:1031F0008686C4CCCC4C4C4C6C6868283838383047
:10320000000000000000000000000000000000308E
:1032100018180C06060303010306040C1818306086
:103220000000000000000000000000000000000C92
:103230001810306060C08080C0C060603038180CEA
:10324000000000000000000000000000000000304E
:10325000101818080C0C04060602030301010101F2
:103260000103071E0000000000000000000000062F
:103270000C0C0C181818303030606060C0C08080B2
:103280008000000000000000000000000000001F9F
:103290001F000000000000010306060C18303F3F2D
:1032A000000000000000000000000000000000FC22
:1032B000FC0818306040C080000000000000FCFCEA
:1032C00000000000000000010101010101010101F5
:1032D0000101033E3E03030101010101010101015E
:1032E000010000000078F8C08080808080808080AD
:1032F00080800000000080808080808080808080CE
:10330000C0F8780000010101010101010101010182
:10331000010101010101010101010101010101019D
:10332000010101000080808080808080808080801A
:10333000808080808080808080808080808080808D
:1033400080808000001E1F030101010101010101B5
:103350000101000000000101010101010101010161
:10336000031F1E000000008080808080808080809D
:103370008080C07C7CC080808080808080808080D5
:1033800080000000000000000000000000000000BD
:10339000001E3F212000000000000000000000008F
:1033A000000000000000000000000000000000001D
:1033B000000084FC78000000000000000000000015
:1033C00000000000007F0101010111111111111114
:1033D0001111FF0000FC0000000000F800000000D8
:1033E0000000FE0000F8080B087840414378080808
:1033F000090B5120402020FE40408808F0204088E2
:1034000004FC040000007F000000003F00000000FA
:1034100000FF00000000FC00000000F800000000B9
:1034200000FE000008081F2040BF21213F21213F4E
:10343000214141800000E02040F80808F80808F821
:1034400008082810020101FF04040407040404080A
:1034500008102040000000FE000000F010101010C6
:103460001010A0401011212149F9112141F9410109
:1034700019E1470000F8080808F8080808F80808E3
:103480000808FE00010102040830CF00001F1010E0
:1034900010101F10000080402018E60000F01010EF
:1034A0001010F0100020101382424A0B1212E22278
:1034B00022242409202020FE222420FC8488485035
:1034C000205088060020101382424A0B1212E2227A
:1034D00022242409202020FE222420FC8488485015
:1034E00020508806007F1212121212FF12121212BE
:1034F0002222428200840408102202C40810220200
:1035000004081060004027200300E7202322232224
:103510002B3222024040FC40F840FE00F808F80838
:10352000F8082810202021FA25405392FA131AF2A5
:103530005312121240A01008F600C45454D454542C
:10354000D44454C804020101010202020404080820
:10355000102040800000000000808080404020203B
:10356000101008061011505C5151FF0111555555AE
:10357000840831C200FE2040FC0424242424244476
:103580005088040202017F02442F11224F0001FFE4
:10359000010101010000FC0044881048E42000FE05
:1035A000000000001011107C545454545555555DC2
:1035B0001111111100FE00F88888F800FC2424FC89
:1035C0002424FC0401003F22223F222223202F2416
:1035D000424186380080FE2020FC2020E000F010D0
:1035E00020C0300E02017F40880404100808FF014B
:1035F000020418600000FE02848080808080FE400B
:103600002010080400007C444544447C4444444465
:103610007C44000008080808FE0808088848480894
:1036200008082810000000FE111010101010101EC5
:10363000F141020440404040FC44444444848484BA
:103640000404281002017F02442F11224F0001FFC1
:10365000010101010000FC0044881048E42000FE44
:10366000000000000000000000000002030303034C
:10367000030303030303030303003F0000000000F0
:103680000000000000004020181C0C08FF01010190
:1036900001FF01010101FF010101FF010101010120
:1036A000010101000000000E0C181020FF80808036
:1036B00080FF80808080FF808080FF80808080808D
:1036C000808000000000000000000080C08080803A
:1036D00080808080808080800018FC0000000000D6
:1036E00000000000000000000000000000000000DA
:1036F00000000000000000000101010303060408AF
:103700001820000000000080E0C0C0C0C0C0C0FFA2
:10371000C0C0C0C0C0FFC08080808000000000002A
:10372000000000000000203830303030303030FFF2
:103730000000000004FE0C0C0C0C0C0C0C0C0C0C0F
:103740000C0C08000000000000000000000030F831
:103750000000000000000000000000000000000069
:1037600000000000000001010101010101013F0111
:103770000303030307050D0909111121410101018B
:103780000101010000000080818181818191F98126
:10379000818181F19999898181818383828684885D
:1037A00090A000000000000001FF818181818181E3
:1037B0008181818181818181810101010101010179
:1037C000010000000000000000C080808080808038
:1037D00080808080808080808080808888888CFE47
:1037E000FC000000000000000000000000000000DD
:1037F000013F0303030303030303030303033F180E
:1038000000000000000000FFC0C0C0FFC0C0FFC03B
:1038100000FF020202FE0202FE0202021FF2020288
:1038200002020100000001FF010101FF0101FF018F
:1038300002FF0000FF20101010090DE70607091015
:1038400020C00000000000C08080808080808090C8
:1038500038FC0020F06060C0C08080000000C0E044
:103860007C100000000000000000000000000000CC
:1038700000000001010302060C08102000000000F7
:10388000000000000000010101010101010141717E
:1038900061E1C181810101010101010101010131E8
:1038A0000F070200000000E080808080808080841C
:1038B0008281818080808080808080808080808004
:1038C0008000000000000000000000000000000078
:1038D000000080C060703838181808000000000030
:1038E00000000000000000000007000000000000D1
:1038F00001000000000003030100000000000306B7
:10390000083000000000000003FF0103060830E05B
:10391000FFC001061870FFF80010383860C00000C2
:103920000F0301000000000FFE00C0000003070CA1
:10393000F8E080030100FFC0C0C0CCC3C1C0C0C05C
:10394000C08000000000C0E0000000000000800017
:1039500000000000C0E0703030000000C0F0783897
:103960001810000000000000010103020604081006
:103970003F1001030204191F18000000001F1C1053
:1039800000000000000080C0C0800007101C38F05C
:1039900060C081030302F0000000000CF00001038E
:1039A000060C3000000030180C0C04FF181C3020EE
:1039B0004180003FF36363636363636343C3838353
:1039C0000301000000000000000018FC00000000DF
:1039D00080E070F818000000000000000808080CE3
:1039E000BCFC00000000080C0603030000003018B7
:1039F0001C0C090101010202067E1C0C0C0C0C0CB3
:103A00000C000100000000203F303030323333B36F
:103A1000B3B3333332323232323626050C08183023
:103A20006080000000000000F030303333B33333E7
:103A30003333333333333333332303038040703032
:103A400031100000000010181818181898181818CD
:103A500018181818181818181818181818181818E6
:103A6000F0702000000000000C06030303000000BB
:103A700000017F030303030303030303030303039F
:103A8000030100000000000000000000003F0000F3
:103A90000000801F01010101010109112143DE889D
:103AA00080000000000004070606060606FF060662
:103AB000060616FA828383838181818CF0C0000020
:103AC00000000000000000C07030101808FC00006A
:103AD0000000000000000000008080C4C464743C4A
:103AE0001C0C040000000000033D01010101017FE6
:103AF00001010303030707050D091111214101010C
:103B00000101010000001079E1818181818189FD3D
:103B1000818180E3B89888888080818080808080DF
:103B20008F80000000000000FF808080808080FF88
:103B3000808000FF040404040404FF04040404045B
:103B4000FF00000000000010F8303030303030F05E
:103B5000300018FC000000000010F8000000000811
:103B6000FC00000000000000000407060606060630
:103B70000606060606070604040C0C0808081010C2
:103B800020204000000001000000FF00003F000076
:103B90000100000000FF0000000000000000000025
:103BA00007000000000000C06060FF0000FF01038C
:103BB00004D8607030FF303030303030303030205A
:103BC000E0E04000000000000030F80040C0E000ED
:103BD0000000000010F83820404000000000000005
:103BE0000000000000000000001F01010101013F72
:103BF0000101030303070509191121410101010115
:103C00000101010000000038FC808080808088FC79
:103C1000808081F1B99A9A848080808080808080C1
:103C2000839C2000000004060606060606E6C6C6BB
:103C3000868686060606060606050103061C30E093
:103C400080000000000000000000000080603018CC
:103C50000C0C080000303860E0C08000000000005C
:103C6000000000000000000000000F000000030042
:103C70000000003F00000000000001030C300000C5
:103C800000000000000001010101FF010101FF012E
:103C9000010101FF07060C183070B03030303037AA
:103CA0007C782000000000800000FF000001FF0081
:103CB000000000FF00808143662830180C07830154
:103CC00000000000000000000060F0000080C00064
:103CD000001038FC00C0E000000000000000C0FE42
:103CE0007810000000000000000001010101010146
:103CF0000101010101010103030303020606040897
:103D00001810200000000301000000FF8080808068
:103D100080FF808080901F18181818181818181F16
:103D20001818000000000080C0C080FF00000000E4
:103D300000FF00000000FF0000000000000000FF86
:103D40000000000000000000000040E04040404053
:103D500040C040000000E0C0C0C0C0C0C0C0C0C083
:103D6000C0C0000000000101010103030206070EAC
:103D70000E0E162626060606060606060606060683
:103D800006060400000000C080803F000403020219
:103D9000020302203F2060600F00000000000000CE
:103DA00001000000000040303010FF0000FF010162
:103DB00001FF0100FF000000FF181818181818185C
:103DC000F8702000000000000010F80080C0808023
:103DD00080808008FC1810E0E00000000000000077
:103DE00000000000000000030000000000000000D0
:103DF0003F0002010100000000000000031E3C180B
:103E000010000000000000FF00000000FF000000A4
:103E1000FF010101C1E1E161430D31E181010121B6
:103E20001F070200000002FF02020202FE0202025D
:103E3000FF8080C0C1A3A69890888C8683818080F3
:103E400080000000000000000000000000000018DA
:103E5000FC0000C0E08000000000000080C0F87C92
:103E6000300000000000000000000700000000001B
:103E700000003F0000000000000000000000000003
:103E800000000000000002030101FF2030181C1C8C
:103E90000C08FF000080FFC0C0C0C0FFC0C0C0FF52
:103EA000C0C08000000000808080FF080C0C081853
:103EB0001020FF000001FF03030303FF030303FFC0
:103EC000030302000000000000C0E000000000004A
:103ED0001038FC000000800000000000000000001E
:103EE0000000000000000101010103030206070EAB
:103EF0000E0E162626060606060606060606060602
:103F000006060400000000C080803F000403020297
:103F1000020302203F2060600F000000000000004C
:103F200001000000000040303010FF0000FF0101E0
:103F300001FF0100FF000000FF18181818181818DA
:103F4000F8702000000000000010F80080C08080A1
:103F500080808008FC1810E0E000000000000000F5
:103F60000000000000000000000000000001000050
:103F70000000000000000000000000000000003F02
:103F80000000000000000000000000000000C0C0B1
:103F9000808080808080808080808080808080FFA2
:103FA00000000000000080E0C0C0C0C0C0C0C0C0B1
:103FB000FFC0C0C0C0C0C0C0C0C0C0C0C0C0C0FF83
:103FC0000000000000000000000000000000006091
:103FD000F00000000000000000000000001038FCAD
:103FE0000000000000000010080C0606040000009D
:103FF00004FE0606060606060606060606070E0662
:1040000000000000000000003F000000011F01014F
:104010000101037F000000080F0C2C4C8C0C0C0CD1
:104020000F0C0C0000000000FFC0C08081FF8383E4
:10403000830303FF00000000FF00000000000000F9
:10404000FF00000000000040E000000000800000D1
:10405000000010F800000080C0C0C0C0C0C0C0C0D8
:10406000C0C00000000000000000003F0000000091
:104070000300000000030000000101010101010133
:104080000101010000000C07030301FF0000000014
:10409000FF00000000FF000000FF8080808080FFA4
:1040A0008080000000000000008000FF0000020788
:1040B000FF00000003FF000002FF0606060606FEE2
:1040C0000606060000000000000060F0000000008E
:1040D00080000000008000000000000000000000E0
:1040E000000000000000000000007F000000000051
:1040F0000101010303050911214101010101010130
:1041000001010100000004070E0CFF181830306F89
:10411000C0C0808080808080BF80808080808080E0
:1041200083800000000000000000FF00000000FF8E
:104130000103041818101010FF10101010101010A8
:10414000F0702000000000000060F000000080C05F
:10415000C000000000000030F80000000000000077
:10416000000000000000000103030206060C0C1E04
:104170001C3C2D4C4C8C0C0C0C0C0C0C0C0C0C0C1E
:104180000C0C080000000080802030181918000076
:104190000017F83030303031323C3032343838307B
:1041A00000000000000010181818181AFF18191B3A
:1041B0001AFF0C183060FFC040407F404040407FF5
:1041C000404040000000000000002070E0C080007F
:1041D00010F800000040F0606060E060606060E047
:1041E00060604000000000000000000000000000CF
:1041F000000000010100000000007F00000000003E
:1042000000000000000080E0C0C0C0C0C0FFC0C00F
:10421000C0C080FF800000000000FF000000000020
:1042200000000000000000000000000000FF00008F
:10423000000000FF000000000030F80000010183D2
:104240007F1E0C00000000000000000060F0000075
:10425000000040E0C0C0C0C0C0C0C0C0C0808080FE
:1042600000000000000000101F1818181818181877
:104270001818181818181818181818181818181FB7
:104280001818180000000000FF0000000000403F68
:10429000202020202020203F20204000000000FF80
:1042A0000000000000000000FF000000000010F807
:1042B00010101010101010F010180000000000FF77
:1042C0000000000000000040E0606060606060602E
:1042D000606060606060606060606060606060E05E
:1042E000606000000000000201010000007F06067F
:1042F0000606070606060404040C0C08081813201A
:10430000204080000000000080C0C0C006FF000008
:104310000008FD090808181818181818181830F19E
:10432000630C10000000103830303020607F40C037
:10433000C0C0412121213313120E0C0E1E336180A7
:1043400000000000000000000000000030F8C0C0C5
:10435000C080808080000000000000000000C0E0FD
:104360007C30000000000007000000000100000099
:104370007F0004020301010000000001073C7830C7
:1043800020000000000000FF00000000FF0000000F
:10439000FF03030383C3C3C3871B63C30303034335
:1043A0003F0E0400000004FE04040404FC040404A2
:1043B000FF00008183474C302010180C07030100D8
:1043C00000000000000000000000000000000030BD
:1043D000F8000080C0000000000000000080F0F83D
:1043E000600000000000000000000F00000000005E
:1043F00000007F0000010101010101010101010133
:1044000001010100000004070303FF406030383859
:104410001810FF000000FF80808080FF808080FFF8
:1044200080800000000000000001FF10181810300C
:104430002040FF000002FF06060606FE060606FEF6
:1044400006060400000000000080C000000000001C
:104450002070F800000000000000000000000000D4
:104460000000000000000407060606060606FF0618
:104470000606060607060E3EF6660606060606064B
:104480007E1C08000000000000080F1A3EB6C70C92
:104490000A1B1269C50B060C17600103060C1830C5
:1044A00041000000000040303010FF000028FF688D
:1044B0006445C28305FE0000FF101091101010101B
:1044C000F0702000000000000010F8302040E06094
:1044D0008000000080E07CB0C0000000C060703050
:1044E00030000000000000203F30303031313132E8
:1044F0003231313030303030303F333130303030A5
:104500003030200000000040E0E0C081810306045C
:104510000837C080C0407F60C0C287060C1830607A
:1045200083000000000020707068C88486030100CA
:1045300002FF30303030FF30303433313030303003
:10454000F0F0400000000000000000000000C0F09B
:10455000783000000060F00000000080E060303043
:10456000000000000000000201010000007F0606BC
:104570000606070606060404040C0C080818132097
:10458000204080000000000080C0C0C006FF000086
:104590000008FD090808181818181818181830F11C
:1045A000630C10000000103830303020607F40C0B5
:1045B000C0C0412121213313120E0C0E1E33618025
:1045C00000000000000000000000000030F8C0C043
:1045D000C080808080000000000000000000C0E07B
:1045E0007C3000000000000000000F000000000010
:1045F00000007F0000010101010101010101010131
:1046000001010100000004070303FF406030383857
:104610001810FF000000FF80808080FF808080FFF6
:1046200080800000000000000001FF10181810300A
:104630002040FF000002FF06060606FE060606FEF4
:1046400006060400000000000080C000000000001A
:104650002070F800000000000000000000000000D2
:10466000000000000000000000001F00000008041F
:1046700002030100000000000001030204081020F2
:1046800000000000000000000000FF0606040C0C03
:1046900008189890707070D8DC8C0606060200012D
:1046A000020C0000000000000000FF20202020106D
:1046B0001010101008090D0507060F0D1930C080E5
:1046C00000000000000000000020F8202060606072
:1046D00060C0C0C08080800000000080C0E0703CEE
:1046E00010000000000000000000070000000000B3
:1046F00000003F000000000000000000000000007B
:1047000000000000000002030101FF2030181C1C03
:104710000C08FF000080FFC0C0C0C0FFC0C0C0FFC9
:10472000C0C08000000000808080FF080C0C0818CA
:104730001020FF000001FF03030303FF030303FF37
:10474000030302000000000000C0E00000000000C1
:104750001038FC0000008000000000000000000095
:104760000000000000000000000006060606060625
:10477000063F00000406060C0C1810202000000163
:104780000608300000004060616060647E60606028
:1047900062FF406040404247464C4C183060C08049
:1047A0000001060000000000FF030604047F6060B3
:1047B000626363636363636363626207040C18305C
:1047C0006080000000000008FC00000008FC1818D1
:1047D0001898181818181818181818008060381C1D
:1047E0000C040400000000000000010101030207A6
:1047F000070F0B1323230303030303030303030321
:1048000003030200000040E0C0C080BF000000873A
:10481000000000000F000004070606060606060753
:104820000606000000004030181818FF000000FFC6
:1048300000000000FF000000FF000000000000FF7B
:104840000000000000000000000010F8000060F010
:1048500000000060F0000020F0606060606060E0D8
:104860006060000000000000000000000000000088
:1048700000003F00000000000000000000000000F9
:1048800000000000000000FFC0C0C0C0C0C0FFC0EA
:104890008000FF181830307F200000000000000367
:1048A00000000000000001FF030303030303FF03F4
:1048B0000000FF00000001FF0101030303030306E2
:1048C000FE7C3000000000800000000000000000BE
:1048D0000018FC00000080C0808000000000000084
:1048E00000000000000000000007000000000000C1
:1048F00001000000000003030100000000000306A7
:10490000083000000000000003FF0103060830E04B
:10491000FFC001061870FFF80010383860C00000B2
:104920000F0301000000000FFE00C0000003070C91
:10493000F8E080030100FFC0C0C0CCC3C1C0C0C04C
:10494000C08000000000C0E0000000000000800007
:1049500000000000C0E0703030000000C0F0783887
:1049600018100000000000000000000000000F0010
:1049700000000000003F00000000000000000001F7
:10498000030C30000000006030181C0C0C00FF010C
:104990000101010101FF030303060C0C18306080C4
:1049A000000000000000080E0E0C18103020FF80E0
:1049B0008080808080FF4020201018080C070301B1
:1049C0000000000000000000000000000030F800BF
:1049D0000000000018FC000000000000000080E063
:1049E000FC38000000000101030304081831000036
:1049F0000606060606060606060606060606060657
:104A000006060400000000C002FF60303112C0E75B
:104A10006040100F080808080F0808080F08080071
:104A20000000000000001038307F4483030000FFC6
:104A3000000010F830303030F0303030F03000000E
:104A4000070000000000000010F80000000020F047
:104A50006060606060606060606060606060606056
:104A6000E0E0000000000000000000000000000086
:104A70000000000000000001030608000000070815
:104A800000000100000080FFC0C0C0FFC0C0C0C067
:104A9000FFD01038707FC386060C18306080030684
:104AA0001C608000000002FF030303FF03030303F5
:104AB000FF03000000FF0C1818383060E0C08020B1
:104AC0001F0702000000008000000000000000003E
:104AD0000000000020F030606060606040C0C0C036
:104AE00080800000000000000C060702003F00016B
:104AF000010204182000003F01010303000000012F
:104B000006380000000060706163666469FFE0F8C9
:104B10006E66626041E0C2FF86060C8C783FE381DE
:104B2000000106000000080E8C18181010FF30302D
:104B3000705090900808080C0D050707070D1830F5
:104B4000C0000000000000000000000008FC6060E1
:104B500060604040C0C0C080808000000080E07085
:104B60003E1000000000020303030303033F03039E
:104B70000303030303073F33230303030303030375
:104B80003F070200000000800000000223F60E0C28
:104B900000000132CC000700000000000000001FF0
:104BA0000000000000000020180C0C04FF00006052
:104BB00071C080000000FF1818181818181818FF86
:104BC000000000000000000000000008FC18102099
:104BD00000E070381040E00000000000000018FC09
:104BE000000000000000000000001F0000000000A6
:104BF00000000000000000000000000000000000B5
:104C00003F000000000001010101FF010103FFC09E
:104C1000C0C0FFC0C0C0C0FFC0C0C0FFC0C0C0C0D7
:104C2000FF000000000000C08080FF800001FF0343
:104C30000303FF03030303FF030303FF0303030350
:104C4000FF000000000000000030F00000008000C5
:104C5000000000000000000000000000000000183C
:104C6000FC0000000000000004030301010000201C
:104C7000181C0C0C0001010302063E0E06040C0C6D
:104C80000C0C01000000000000009F8000002021AB
:104C9000424F878484060404040C0C0C0C08183062
:104CA00020C00000000040703030FF2070C0810044
:104CB00000FF000041312121212121212121212139
:104CC00021214000000000000030F80000000080BA
:104CD000C0E0602000808080808080808888880C90
:104CE0008EFC000000000000011F01010101013FD6
:104CF00001010103030307050D0911212101010130
:104D00000101010000001030F8808080818294FF52
:104D1000808081E0B0989B888080808484848C9C93
:104D200098800000000020306060FF81030204FFD3
:104D30000000FF000000FF00100C8CE4C4C0C0C0E5
:104D4000E07F0000000000000080C080000010F83C
:104D50003030F0303030F03020000030584C4C44CF
:104D6000E0C000000000000003030303030303038B
:104D7000030303030302020206060606040C0818D6
:104D80001720400000000000FF00000000000000AD
:104D90000000007F00000000000000000000000094
:104DA000FF00000000000000FF0080E0E0C0C0C085
:104DB000C0C0C0FFC0C0C0C6C3C1C1C0C0C0C0C0A9
:104DC000FF00000000002070F8000000000000005C
:104DD0000000C0E0000000000080C0C0C0C000189B
:104DE000FC000000000000000000000407060606AA
:104DF0000606070606060606060706060000000069
:104E0000000000000000020303030303FF03030389
:104E10000303FF030303030303FF0303030303036A
:104E2000030100000000008000000000FF000000FF
:104E30000000FF000000000000FF00000000000074
:104E4000FFFF00000000000000000080C0C0C0C0E4
:104E5000C0C0C0C0C0C0C0C0C0C0C00808080818DA
:104E6000FCF80000000000080607030300006030A3
:104E70001C1C0C090101020206661C0C0C0C0C0C1B
:104E80000C050200000000000F0828284848488848
:104E90008888880808181818181010302161428472
:104EA0008810000000000000FF0406040888FFC00E
:104EB000C0C0FFC0C0C0FFC60606E6C6860606061E
:104EC0007E1C080000000008FC0000000000F83014
:104ED0003030F0303030F0300000C06030181C0C42
:104EE000080000000000000000000000003F00007B
:104EF00000000000010F3C10000000000000001145
:104F00000F030300000080C08080808398FC8080B5
:104F100080808CB0C180808080808080808087800D
:104F20008080000000000000000000FF0000000082
:104F300000000000FF000000000000000000FF0073
:104F40000000000000000000000010F81010101019
:104F500010101010F0101010101010101010F01091
:104F600010100000000001010101010101013F01D9
:104F70000101010101010F3D3101010101010101A7
:104F80001F070200000000C0808080808F90F880A2
:104F90008080848BB2C28282828382828282828378
:104FA000820204000000006161616161FF61616172
:104FB000610000FF0C0C0C0C0CFF0C0C0C0C0CFF1B
:104FC000000000000000008080808098FC808080CD
:104FD000800010F81010101010F01010101010F0C9
:104FE000101000000000020303030303037F030308
:104FF000030707070F0B0B131323430303030303D9
:10500000030302000000008000001F0030F80203CC
:10501000038363333313130302003F0000000000D7
:10502000030E3000000082E3C3C3FFC3C3C300FF0D
:105030000000FF000000FF181810FF34326341C069
:1050400000000000000000800018FC00000000F0DC
:105050006060E0606060E0600018FC00000080E0DC
:105060007E3800000000000000000000001F00006B
:105070000000001F00000000000000000000073FCB
:1050800018000000000000000000000000FF000009
:10509000000003FF6060606060606060637CE0004F
:1050A00000000000000060726160202020FF3030AE
:1050B000303030B030181818180C0C468703010136
:1050C000000000000000000080C0E05038FC00003C
:1050D00000000000000000000000040408088CEC40
:1050E000FC3C0C000000010101010101013F010134
:1050F00001010101030F3D3911010101010101010C
:105100001F070200000000C080808283A2F68E800C
:105110008090A0DF808081818383808080808080F8
:10512000810E3000000020180C0C0CFF00003830FD
:10513000306060FFC08081010103E31E070D38600D
:10514000C000000000000000000008FC1810200053
:10515000000018FCC0C080808000000000C0F03853
:10516000180800000000000101030306040C1820C9
:1051700040030000003F0000000F0000000000009E
:1051800000000000000000C0C083FF40203030104D
:1051900000FF000000FF000000FF2030180C0C0C86
:1051A000000000000000080E1C189F32214181C041
:1051B00080FF808080FF040706FF060606060606BD
:1051C0007E1E0C00000000000008FC008080808033
:1051D00040E0000008FC000018FC00000000000097
:1051E000000000000000000101011119090D0D016E
:1051F000013F0103030307070D09191121410101B3
:1052000001010000000000C08080999890A0A1C01A
:1052100090FC8380C0A0B898988080808080808037
:1052200080800000000004060404FF040404FF045E
:105230000404FF0000FFC0C0FFC0C0FFC0C0C0C06A
:10524000C3C08000000000000010F8000020F00043
:105250000008FC0020F02020E02020E0202020207A
:10526000E0E0400000000000000407060606060714
:1052700006060606060604040C0C0C080818101096
:1052800020204700000001000000FF04070606FF81
:10529000060606060706003F04020301000000039D
:1052A0000E708000000000C0E040FF04070606FF0B
:1052B00006060606FE0601FF0307060CD870F89ED8
:1052C00007000000000000001038FC00000030F86B
:1052D00000000000000000808000000000000000CE
:1052E000F8F810000000000000000606060606069A
:1052F000063F00000406060C0C18102020000001D8
:105300000608300000004060616060647E6060609C
:1053100062FF406040404247464C4C183060C080BD
:105320000001060000000000FF030604047F606027
:10533000626363636363636363626207040C1830D0
:105340006080000000000008FC00000008FC181845
:105350001898181818181818181818008060381C91
:105360000C0404000000000000001F00000C0703F4
:105370000101000000030E1C0800003F00000000B7
:1053800000000000000002030101FF0303060C9867
:105390003F38014386083F3D010101FF0101010142
:1053A00001010100000000808080FF000010383102
:1053B000E3C480022118FC0C888080FF80808080FC
:1053C00080800000000000000020F0000040E0802D
:1053D00000000000C0E03030000018FC00000000B9
:1053E00000000000000004020101000000000000B5
:1053F000017F01010101010101010101010101031D
:10540000010000000000000080C0C0C000000000DB
:10541000009F000000000000000008103060C08005
:10542000800000000000101C181818181818181810
:1054300018FF181818181818181818181818181805
:10544000181810000000000000000000000000001C
:1054500018FC000000000000000000000000000038
:105460000000000000000001010101010101010133
:105470007F0000010101010101010101000700009D
:10548000003F0000000000FF8080FF8080FF800060
:10549000FF0000FF8181FF818181FF8101FF010108
:1054A00001FF0000000001FF0101FF0101FF0100F9
:1054B000FF0000FF8181FF818181FF8180FF80806B
:1054C00080FF000000000080000000000000800855
:1054D000FC0000808080808080808000C0E0000030
:1054E00018FC000000000000033D01010101017FE4
:1054F00001010303030707050D09111121410101F2
:105500000101010000001079E1818181818189FD23
:10551000818180E3B89888888080818080808080C5
:105520008F80000000000000FF808080808080FF6E
:10553000808000FF040404040404FF040404040441
:10554000FF00000000000010F8303030303030F044
:10555000300018FC000000000010F80000000008F7
:10556000FC00000000000203030303030303030322
:105570007F03030303030303030303030301010086
:1055800000000000000000800007000000061FE08F
:1055900000000000000000020C1860C0810302043B
:1055A000183040000000000000FF181818181818E4
:1055B00018181830303030606060C0C08000000CB7
:1055C000030100000000000010FC1818181818183B
:1055D000101030303030303030303030303070609B
:1055E000E0C080000000010101010101013F010153
:1055F0000101010101077D390101010101010101E1
:105600001F0700000000008080808181A3FE848C41
:1056100097A68EB6C6868686FF80808080808103AE
:105620000418600000004070C0C2FF0306040808B0
:10563000FF10101010101030FF38246642C1810096
:10564000000000000000000000000000000000005A
:10565000E060606060606068FC000000000080E066
:105660007C1000000000010101010101013F010166
:1056700001010101010101010103030206040D08FA
:1056800010204000000000C08080808082FF838264
:1056900082828282828282020206060606060CFC52
:1056A0003810000000000000000000001F10101063
:1056B00010101010101010101010101010101F10DB
:1056C000101000000000000000000010F81818186A
:1056D0001818181818181818181818181818F8186A
:1056E000181800000000020303030303030303036D
:1056F0001B1B3333030303030303030303030303EA
:105700000303020000000080000000000F806030F2
:1057100030100000003F0000000000010103060CF3
:10572000182040000000407060606060FF606060B2
:105730006060606060FF6848C8C48486030101003F
:10574000000000000000000000000040F060606009
:105750006060606068FC0000000000000080C0E045
:105760007C3810000000000020180C0E0604010117
:105770000102020204044C381808181818181901FC
:10578000020408000000000000000000BFB030303C
:105790003F3030303427266666666647C68680000E
:1057A000000001000000040706060606FF060626A4
:1057B000F606060606FE3632323333F32704083087
:1057C00060800000000000C070303008FC00000065
:1057D0001018183030606040C080800084C4C474E9
:1057E0003C1C040000000203020202031212121207
:1057F00032327202020202020202020202020202B9
:10580000020202000000040706060706E6662726D5
:10581000201F181818181F180F01000000000000A2
:1058200000077800000000FF0000FF000000FF00FC
:1058300000FFC2C2C2C2FF00FF0081C3673E1C3E20
:10584000E3000000000000C06040C0404040C04095
:1058500000FC18181818F858C0C08000000000009C
:10586000F4F8100000000000000101030206040823
:10587000103F10000103060C1F1C080000000F1C45
:1058800008000000000080E0C0808007080C1818A5
:10589000B060408080000478800000021CE0801F1F
:1058A0000000000000000000000000FF0C0C0C0CC9
:1058B0000C0C0C0C0C0C0C0C0C0C0C0C0C0C0CFF35
:1058C0000000000000000000000030F800000000B0
:1058D000000000000000000000000000000018FCB4
:1058E00000000000000000000000000001010103B2
:1058F000030607040818102000000000000103063A
:10590000083000000000407060E0C0C081FF8103EB
:10591000030306C6E66C2C1818302060C080000017
:10592000000000000000080E0C0C0C0C0C8C8C8C81
:105930000C0E0D0C0C0C0C0C0C0C0C0C0C0C0C0CA4
:105940000C0C080000000000000000000000000037
:105950000000C070381C0C000000000000000000B7
:105960000000000000000000000201000000000034
:1059700000003F00000000000000000000000001E7
:105980000618600000000101010181C1617131311F
:105990000101FF1818181818103030206040C0009E
:1059A00000000000000000C0808081838386868420
:1059B0008890FF3030303030303030303030303060
:1059C0003F1F000000000000000080800000000079
:1059D0001030F80000000000000008080808080C5B
:1059E000FCF80000000000080C060703020000009D
:1059F000017F03030303030303030303030C387052
:105A0000200000000000000F00000000101F181808
:105A1000189F181818181F18181818181890603E92
:105A20000F000000000000FF0183743818FF101001
:105A300010FF10101010FF101010101011000000B7
:105A4000FFFF0000000040E0E000000020F83030E0
:105A500030F030303030F03030303030F060000E28
:105A6000F8F000000000000000000101010302073F
:105A7000070F0B132323030303030303030303038E
:105A800003030200000040E0C0C080BF00000087A8
:105A9000000000000F0000040706060606060607C1
:105AA0000606000000004030181818FF000000FF34
:105AB00000000000FF000000FF000000000000FFE9
:105AC0000000000000000000000010F8000060F07E
:105AD00000000060F0000020F0606060606060E046
